:100A390043616C63756C61746F72004572726F7299
:0A0A490000526573756C743A2000CA
:090AA700010D00010E00010F2BEE
:10080000120A801209EE7FD07E07120A1912099887
:100810008F08E508C394304033E508D39439502C51
:10082000E50FB42B10E50824D0FFE50D75F00AA400
:100830002FF50D8013E50FB43DD3E50824D0FFE577
:100840000E75F00AA42FF50EAF08802EE508B42B24
:1008500007750F2B7F2B8022E508B42D07750F2D10
:100860007F2D8016E508B42A07750F2A7F2A800A93
:10087000E508B42F0A750F2F7F2F120A6C808EE5C2
:1008800008B43D14AB0EAD0DAF0F12093F750F3D0F
:10089000E4F50EF50D02080DE50864436003020857
:1008A0000DF50EF50D750F2B7F01120A941209EE4E
:0308B00002080D2E
:100A1900E4FDFCC3ED9FEC9E5015E4FBFA0BBB0013
:0F0A2900010AEB647B4A70F50DBD00010C80E4FF
:010A3800229B
:100A94008FA0E4F5B07F01FE120A1975B0017F053D
:030AA400020A192A
:100A6C008FA075B0027F017E00120A1975B0037F4A
:040A7C0005020A194C
:100A80007F38120A947F0C120A947F06120A947F10
:040A900001020A94C1
:0609EE007BFF7A0A793953
:1009F4008B0A8A0B890CAB0AAA0BA90C120A536046
:100A040013050CE50C7002050B14F9120A53FF12BE
:050A14000A6C80E222E3
:100998007920E4FDEDC39404748094805045A80543
:1009A8007401088002C333D8FCF4F590E4FCECC36E
:1009B8009404748094805028EC2404FF7E00740111
:1009C800A807088005C333CE33CED8F9FFAB90EF24
:1009D8005B700AED25E025E02C2430FF220C80CE48
:0509E8000D80B1AF011C
:0109ED0022E7
:10093F00E4F509EF24D6601924FD600E24FE60193A
:10094F0024047020ED2BF5098028C3ED9BF5098059
:10095F0021ED8BF0A4F5098019EB6008ED8BF08485
:10096F00F509800E7F01120A947BFF7A0A794402FF
:10097F0009F47F01120A947BFF7A0A794A1209F46B
:08098F00E5092430FF120A6C97
:01099700223D
:030000000208B340
:0C08B300787FE4F6D8FD75810F0208FA8A
:100A5300BB010689828A83E0225002E722BBFE02A1
:090A6300E32289828A83E49322D4
:1008BF00020800E493A3F8E493A34003F68001F247
:1008CF0008DFF48029E493A3F85407240CC8C3333A
:1008DF00C4540F4420C8834004F456800146F6DF09
:1008EF00E4800B0102040810204080900AA7E47EE8
:1008FF00019360BCA3FF543F30E509541FFEE493FE
:10090F00A360010ECF54C025E060A840B8E493A3C4
:10091F00FAE493A3F8E493A3C8C582C8CAC583CAEF
:10092F00F0A3C8C582C8CAC583CADFE9DEE780BEA7
:010AB0000045
:00000001FF
