:1009980043616C63756C61746F72004F706572614E
:1009A80074696F6E3A202B004F7065726174696FBD
:1009B8006E3A202D004F7065726174696F6E3A202F
:1009C8002A004F7065726174696F6E3A202F004F6C
:1009D800706572616E64313A20004F706572616EA5
:1009E80064323A20004572726F7200526573756CFA
:0409F800743A20002D
:090B7200010E00010F0001102B1F
:100800001200007BFF7A097998120B347FD07E07A3
:10081000120B14120A558F0885B009E50930E01053
:1008200075102B7F01120ADF7BFF7A0979A3806F95
:10083000E50930E11075102D7F01120ADF7BFF7A88
:100840000979B0805AE50930E21075102A7F01124B
:100850000ADF7BFF7A0979BD8045E50930E3107531
:10086000102F7F01120ADF7BFF7A0979CA8030E5F9
:100870000930E413AB0FAD0EAF101209FC75103D3B
:10088000E4F50FF50E801BE50930E516E4F50FF5EC
:100890000E75102B7F01120ADF7BFF7A09799812FF
:1008A0000B34E508C394305003020813E508D394D1
:1008B000394003020813E510B42B24E50824D0FFC7
:1008C000E50E75F00AA42FF50E7F01120ADF7BFFFB
:1008D0007A0979D7120B34E50E120AAB020813E538
:1008E00010643D6003020813E50824D0FFE50F758E
:1008F000F00AA42FF50F7F01120ADF7BFF7A097936
:0C090000E2120B34E50F120AAB020813E0
:070B0D004390087F017E0008
:100B1400E4FDFCC3ED9FEC9E5015E4FBFA0BBB0017
:0F0B2400010AEB647B4A70F50DBD00010C80E403
:010B3300229F
:100ADF00A907E954F0FFE590540F4FF5905390F7A5
:100AEF00120B0D5390F7E9C454F0FFE590540F4FDC
:0E0AFF00F5904390087F01120B145390F722DC
:030AAB002430FFF5
:100AAE00A907E954F0FFE590540F4FF590439010CD
:100ABE00120B0D5390F7E9C454F0FFE590540F4F0D
:100ACE00F5904390104390087F01120B145390F74A
:010ADE0022F5
:100B34008B0B8A0C890DAB0BAA0CA90D120B5960F7
:100B440013050DE50D7002050C14F9120B59FF1273
:050B54000AAE80E22260
:100A55007920E4FDEDC39404748094805045A80585
:100A65007401088002C333D8FCF4F580E4FCECC3C0
:100A75009404748094805028EC2404FF7E00740153
:100A8500A807088005C333CE33CED8F9FFAB80EF76
:100A95005B700AED25E025E02C2430FF220C80CE8A
:050AA5000D80B1AF015E
:010AAA002229
:1009FC00E4F50AEF24D6601924FD600E24FE60197C
:100A0C0024047020ED2BF50A8028C3ED9BF50A8099
:100A1C0021ED8BF0A4F50A8019EB6008ED8BF084C6
:100A2C00F50A800E7F01120ADF7BFF7A0979ED024D
:100A3C000B347F01120ADF7BFF7A0979F3120B3436
:080A4C00E50A2430FF120AAE96
:010A5400227F
:0300000002090CE6
:0C090C00787FE4F6D8FD758110020953D5
:100B5900BB010689828A83E0225002E722BBFE029A
:090B6900E32289828A83E49322CD
:10091800020800E493A3F8E493A34003F68001F2ED
:1009280008DFF48029E493A3F85407240CC8C333E0
:10093800C4540F4420C8834004F456800146F6DFAF
:10094800E4800B0102040810204080900B72E47EC2
:10095800019360BCA3FF543F30E509541FFEE493A4
:10096800A360010ECF54C025E060A840B8E493A36B
:10097800FAE493A3F8E493A3C8C582C8CAC583CA96
:10098800F0A3C8C582C8CAC583CADFE9DEE780BE4E
:010B7B000079
:00000001FF
