:0608D200312B313D320024
:10088D001208007F011208A07BFF7A0879D21208A6
:03089D002B80FEAF
:100800007F147E001208547F381208A01208507F0F
:100810000C1208A01208507F061208A01208507F80
:0B082000011208A07F057E00020854B2
:1008A0008F9053907F4390407F017E0012085453F5
:0308B00090BF22D4
:1008B3008F904390804390407F017E0012085453F1
:0308C30090BF22C1
:10082B008B088A09890AAB08AA09A90A12087460FD
:10083B0013050AE50A7002050914F9120874FF1270
:05084B0008B380E22269
:040850007F057E00A2
:10085400E4FDFCC3ED9FEC9E5015E4FBFA0BBB00DA
:0F086400010AEB647B4A70F50DBD00010C80E4C6
:010873002262
:030000000208C62D
:0C08C600787FE4F6D8FD75810A02088DE9
:10087400BB010689828A83E0225002E722BBFE0282
:09088400E32289828A83E49322B5
:00000001FF
