:100A130043616C63756C61746F72004F70657261D2
:100A230074696F6E3A202B004F7065726174696F41
:100A33006E3A202D004F7065726174696F6E3A20B3
:100A43002A004F7065726174696F6E3A202F004FF0
:100A5300706572616E64313A20004F706572616E29
:100A630064323A2000526573756C743A2000457203
:040A7300726F72002C
:090B940001110001120001132BF4
:100800001200007BFF7A0A7913120B567FD07E0705
:10081000120B36120A778F0885B009E50930E0100F
:1008200075132B7F01120B017BFF7A0A791E806FF3
:10083000E50930E11075132D7F01120B017BFF7A62
:100840000A792B805AE50930E21075132A7F0112CC
:100850000B017BFF7A0A79388045E50930E3107592
:10086000132F7F01120B017BFF7A0A79458030E557
:100870000930E413AB12AD11AF131209AA75133D81
:10088000E4F512F511801BE50930E516E4F512F5E3
:100890001175132B7F01120B017BFF7A0A7913125A
:1008A0000B56E508C394305003020813E508D394AF
:1008B000394003020813E513642B6011E513642D1E
:1008C000600BE513642A6005E513B42F24E50824C2
:1008D000D0FFE51175F00AA42FF5117F01120B016D
:1008E0007BFF7A0A7952120B56E511120ACD0208E3
:1008F00013E513643D6003020813E50824D0FFE507
:100900001275F00AA42FF5127F01120B017BFF7AFA
:0E0910000A795D120B56E512120ACD02081389
:070B2F004390087F017E00E6
:100B3600E4FDFCC3ED9FEC9E5015E4FBFA0BBB00F5
:0F0B4600010AEB647B4A70F50DBD00010C80E4E1
:010B5500227D
:100B0100A907E954F0FFE590540F4FF5905390F782
:100B1100120B2F5390F7E9C454F0FFE590540F4F97
:0E0B2100F5904390087F01120B365390F72297
:030ACD002430FFD3
:100AD000A907E954F0FFE590540F4FF590439010AB
:100AE000120B2F5390F7E9C454F0FFE590540F4FC9
:100AF000F5904390104390087F01120B365390F706
:010B000022D2
:100B56008B0E8A0F8910AB0EAA0FA910120B7B60A1
:100B6600130510E5107002050F14F9120B7BFF1226
:050B76000AD080E2221C
:100A77007920E4FDEDC39404748094805045A80563
:100A87007401088002C333D8FCF4F580E4FCECC39E
:100A97009404748094805028EC2404FF7E00740131
:100AA700A807088005C333CE33CED8F9FFAB80EF54
:100AB7005B700AED25E025E02C2430FF220C80CE68
:050AC7000D80B1AF013C
:010ACC002207
:0609AA008F0A8D0B8B0C7F
:1009B000E4F50D7F01120B017BFF7A0A7968120BB7
:1009C00056E50A24D6601D24FD601024FE601F2415
:1009D000047029E50B250CF50D802FC3E50B950C54
:1009E000F50D8026E50B850CF0A4F50D801CE50CBB
:1009F000600AE50B850CF084F50D800E7F01120B6B
:100A0000017BFF7A0A7971020B56E50D2430FF1243
:020A10000AD00A
:010A120022C1
:0300000002091ED4
:0C091E00787FE4F6D8FD758113020965AE
:100B7B00BB010689828A83E0225002E722BBFE0278
:090B8B00E32289828A83E49322AB
:10092A00020800E493A3F8E493A34003F68001F2DB
:10093A0008DFF48029E493A3F85407240CC8C333CE
:10094A00C4540F4420C8834004F456800146F6DF9D
:10095A00E4800B0102040810204080900B94E47E8E
:10096A00019360BCA3FF543F30E509541FFEE49392
:10097A00A360010ECF54C025E060A840B8E493A359
:10098A00FAE493A3F8E493A3C8C582C8CAC583CA84
:10099A00F0A3C8C582C8CAC583CADFE9DEE780BE3C
:010B9D000057
:00000001FF
